:100000000C943A740C9459740C9459740C9459745B
:100010000C9459740C9459740C9459740C9459742C
:100020000C9459740C9459740C9459740C9459741C
:100030000C9459740C9459740C9459740C9459740C
:100040000C9459740C9467860C9459740C945974DC
:100050000C9459740C9459740C9459740C945974EC
:100060000C9459740C9459740C9459740C945974DC
:100070000C9459740C9459740C9459740C945974CC
:100080000C9459740C9459740C9459740C945974BC
:100090000C9459740C9459740C9459740C945974AC
:1000A0000C9459740C9459740C9459740C9459749C
:1000B0000C9459740C9459740C9459740C9459748C
:1000C0000C9459740C9459740C9459740C9459747C
:1000D0000C9459740C9459740C9459740C9459746C
:1000E0000C945974597755775577A377A377597737
:1000F000597755774677597755775577A377A3770B
:100100005977577755775777B284B684B984BC84CA
:10011000BC84BF84C284C584C584118D2E8D4B8D53
:10012000688D858DA28DBF8DDC8DF98D168E07BBF8
:1001300024BB41BB5EBB7BBB98BBB5BBD2BBEFBB9B
:100140000CBC1FC128C131C13AC143C14CC155C10A
:100150005EC167C170C137C229C22CC22FC22FC273
:1001600037C237C231C234C20000000000000000B4
:10017000000000000000000000000000000000007F
:10018000000000000000000000000000000000006F
:10019000000000000000000000000000000000005F
:1001A000000000000000000000000000000000004F
:1001B000000000000000000000000000000000003F
:1001C000000000000000000000000000000000002F
:1001D000000000000000000000000000000000001F
:1001E000000000000000000000000000000000000F
:1001F00000000000000000000000000000000000FF
:1002000000000000000000000000000000000000EE
:1002100000000000000000000000000000000000DE
:1002200000000000000000000000000000000000CE
:1002300000000000000000000000000000000000BE
:1002400000000000000000000000000000000000AE
:10025000000000000000000000000000000000009E
:10026000000000000000000000000000000000008E
:10027000000000000000000000000000000000007E
:1002800000000000000000000000000007AAAAAA69
:10029000AAAAA70000000000AAAAAAA7AAAAAAA719
:1002A0000000000000000000000000000AF700004D
:1002B0000007F70000000000F77777FAF77777F785
:1002C000000000000000000000000000007AAAAA60
:1002D000700F0000000000007A7007777A007F70CE
:1002E000000000000000000000000000000AA70A53
:1002F000700A00000000000007A00A000A007A004F
:10030000000000000000000000000000000AA70A32
:10031000707A00000000000007A00F000A00A7008C
:10032000000000000000000000000000000AF70AC2
:10033000707A00000000000007A00F000A00A7006C
:10034000000000000000000000000000000AF70AA2
:10035000707A00007AAAAAFFAAA00F000A00A700DC
:10036000000000000000000000000000000AF70A82
:10037000707A7AFFFFFFFFFFFFA00FFAAA00A70025
:10038000000000000000000000000000000AF70A62
:10039000707FFFFFFFFFFFFFFFA00FFFFF00A70021
:1003A000000000000000000000000000000AF70F3D
:1003B000707FFFFFFFFFFFFFFFA00FFFFF00AF00F9
:1003C000000000000000000000000000000AFAFF2A
:1003D000707FFFFFFAAAFFFFFFA00FFFFF00AFFA39
:1003E00070000000000000000000000000AFFFFFF0
:1003F000707AA777777077777AA00FFFFF00AFFF4B
:10040000FA000000000000000000000000AFFFFF45
:10041000707AFAAAAAA07FAAAAA00FFFFF00AFFFD6
:10042000FFF0000000000000000000000FFFFA7A5B
:10043000707A7A007A7007A0AAA00F0AFF00AFFFB7
:10044000FFFF00000000000000000007FFFFF70AA8
:10045000707A0A70AA0000AAA7A00A000F00AFFFD6
:10046000FFFFFA00000000000000000FFFAAF00AE2
:10047000707A07A07A0000AA70A00A000A00AFFFF5
:10048000FFFFFF0000000000000007AFF70AF00ABE
:10049000707A00A00A0000AF00A00A000A00AFFFB7
:1004A000FFFFFFF00000000000000FFF700AF00ADD
:1004B000707A00A00A0000FA00F007A7A000AFFFC2
:1004C000FFFFFFFF0000000000007FF0000AF00ABD
:1004D000707A00A70A7000AA00A0000A0A00A7FF0D
:1004E000FFFFFFFF700000770000FF70000AF00AB6
:1004F000707A007A07A007A7007A0000FA00A77FA9
:10050000FFFFAA7777AAFFFA000AFA00000AF00AAA
:10051000707A000A00A00AA0000A707A0A00A707F1
:1005200077AAAFFFFFFFFFFA000FF700000AF00AFB
:10053000707A000A00A00AF00000AAA00A00AFFF2B
:10054000FFFFFFFFFFFFFFFA007FFA00000AF00A3B
:10055000707A000A70A70FA00077AAFFFF00AFFF14
:10056000FFFFFFFFFFFFFFFA00AF7000000AF00A75
:10057000707A000A707AAFFFFFFFFFFFFF00AFFF46
:10058000FFFFFFFFFFFFFFFA07FF7000000AA00A4E
:10059000707A7AAFA00FFFFFFFFFFFFFFF00AFFFF2
:1005A000FFFFFFFFFFFFFFFAAFFFF00AA00FA7AFAB
:1005B000707FFFFFF00FFFFFFFFFFFFFFF00AFFFA8
:1005C000FFFFFFFFFFFFFFFAFFFFFAA7AFFFFFFFED
:1005D000707FFFFFF00AFFFFFFFFFFFFFF00AFFF8D
:1005E000FFFFFFFFFFFFFFFAFFFFFFF0AFFAFFFF84
:1005F000707FFFFFF70AFFFFFFFFFFFFFF00AFFF66
:10060000FFFFFFFFFFFFFFFAAFFFFAF07FFFFFFFE3
:10061000707FFFFFFA07FFFFFFFFFFFFFF00AFFF45
:10062000FFFFFFFFFFFFFFFA0FFFF0F07AAAA77AA4
:10063000707FFFFFFF00AFFFFFFFFFFFFF00AFFF77
:10064000FFFFFFFFFFFFFFFA00AFA0A00A7A000A3A
:10065000700F0077AF00FFFFFFFFFFFFFF007FFF7E
:10066000FFFFFFFFFFFFFFFA000FF07F00F007AA78
:100670000000A7000A70A0777AAAFFFFFF000FFF13
:10068000FFFFFFFFFFFFFFFA000AFA77AA0007FA51
:10069000AAAAA70007A7A0000000000AFA0007FF07
:1006A000FFFFFFFFFFFFFFFA0000FF0070000000E8
:1006B0000000000000AA70000000000AAAAAAAA771
:1006C0007AAAFFFFFFFFFFFA0000AFA000000000C2
:1006D0000000000A70AA000000000000000000AF47
:1006E000FFFAA770777AAAFA00000FF7000000005F
:1006F000000000A7A0AF000000000000000007FFFE
:10070000FFFFFFFA00000000000000FFF000000003
:10071000000000A0A0FA00000000000000000FFF91
:10072000FFFFFFF7000000000000000FFA000000CC
:10073000000000A0A7AA000000000000000AFFFFC0
:10074000FFFFFF700000000000000000FFA000009D
:10075000000000A00AA000000000000000AFFFFFA2
:10076000FFFFF70000000000000000007FFFA00076
:10077000000000A700A0000000000000AFFFFFFF86
:10078000FFFF7000000000000000000007AFFFA0A6
:100790000000007A7A7000000000007FFFFFFFFF7A
:1007A000FFFF00000000000000000000000AFFFF43
:1007B000A7000000A00000000007AFFFFFFFFFFF41
:1007C000FFA00000000000000000000000007AFF11
:1007D000FFFFAA770000077AAFFFFFFFFFFFFFFFD1
:1007E000A000000000000000000000000000007FEA
:1007F000FFFFFFFFFFFFFFFFFFFFFFFFFFFFFFF711
:1008000000000000000000000000000000000000E8
:100810007AFFFFFFFFFFFFFFFFFFFFFFFFFFA700C4
:1008200000000000000000000000000000000000C8
:100830000007AFFFFFFFFFFFFFFFFFFFFA700000A1
:1008400000000000000000000000000000000000A8
:1008500000000007AAAFFFFFFFFAAA700000000027
:100860000000000000000000000000000000000088
:100870000000000000000000000000000000000078
:100880000000000000000000000000000000000068
:100890000000000000000000000000000000000058
:1008A0000000000000000000000000000000000048
:1008B0000000000000000000000000000000000038
:1008C0000000000000000000000000000000000028
:1008D0000000000000000000000000000000000018
:1008E0000000000000000000000000000000000008
:1008F00000000000000000000000000000000000F8
:1009000000000000000000000000000000000000E7
:1009100000000000000000000000000000000000D7
:1009200000000000000000000000000000000000C7
:1009300000000000000000000000000000000000B7
:1009400000000000000000000000000000000000A7
:100950000000000000000000000000000000000097
:100960000000000000000000FF00000000000FF089
:10097000F000000F000000F0F000000F000000F099
:10098000F000000F000000FFF000000F000000FF6B
:10099000F0000000000000F0F000000F000000F088
:1009A000FF00000000000FF0FF00000000000FF04B
:1009B000F0FFF000000000F0F0FFF000000000F099
:1009C000F0FFF000000000FFF0FFF000000000FF6B
:1009D000F0FFF000000000F0F0FFF000000000F079
:1009E000FF00000000000FF0FF00000000000FF00B
:1009F000F0FFF0FFF00000F0F0FFF0FFF00000F07B
:100A0000F0FFF0FFF00000FFF0FFF0FFF00000FF4C
:100A1000F0FFF0FFF00000F0F0FFF0FFF00000F05A
:100A2000FF00000000000FF0FF00000000000FF0CA
:100A3000F0FFF0FFF0FFF0F0F0FFF0FFF0FFF0F05C
:100A4000F0FFF0FFF0FFF0FFF0FFF0FFF0FFF0FF2E
:100A5000F0FFF0FFF0FFF0F0F0FFF0FFF0FFF0F03C
:100A6000FF00000000000FF0FF00000000000FF08A
:100A7000F0000000F00000F0F000000F000000F0B7
:100A8000F00000FFFF0000FFF0000000F00000FF9A
:100A9000F000000F000000F0F00000F0000000F097
:100AA000FF00000000000FF0000000F00000000058
:100AB00000000FF0F000F00000F0FFF00F0F00005A
:100AC00000F0FFF000F0000000F0FFF00F0F00005A
:100AD00000F0FFF0F000F00000000FF00000000058
:100AE000000000F000000000000000000000000016
:100AF00000000000000000000000000000000000F6
:100B000000000000000000000000000000000000E5
:100B100000000000000000000000000000000000D5
:100B2000000000000000000000FFFF0000FFFF00C9
:100B300000FFFF00000000000000000000000000B7
:100B40000000000000FFFF0000FFFF0000FFFF00AB
:100B50000000000000000000000000000000000095
:100B60000000000000000000000000000000000085
:100B700000000000000000000000777777700000A0
:100B800000007FFFFF70000000007FFFFF7000008B
:100B900000007FFFFF70000000007FFFFF7000007B
:100BA00000007FFFFF70000000007FFFFF7000006B
:100BB00000007FFFFF70000000007FFFFF7000005B
:100BC0007FFFFFFFFFFFFF7007FFFFFFFFFFF70043
:100BD000007FFFFFFFFF70000007FFFFFFF700002F
:100BE00000007FFFFF700000000007FFF70000001B
:100BF0000000007F700000000000000700000000FF
:100C000007FFFFFFFFFFF70007FFFFFFFFFFF700F2
:100C100007FFFFFFFFFFF70007777777777777000A
:100C20000000000000000000007FFFFFFFFF7000D9
:100C3000007FFFFFFFFF7000007FFFFFFFFF7000DE
:100C400000777777777770000000000000000000E1
:100C50000000000000000000000000000000000094
:100C60000000000000000000000000000000000084
:100C70003230002035002033004E4F4E495553206E
:100C80002020202020004F544B4C4F4E454E4945CC
:100C900020200052415A4252414B4F564B412000B6
:100CA000534B414E49524F56414E494500495A4DCA
:100CB0004552454E494520202000CDCECDC8D3D148
:100CC00020202020202000CED2CACBCECDC5CDC83A
:100CD000C5202000D0C0C7C1D0C0CACEC2CAC02063
:100CE00000D1CAC0CDC8D0CEC2C0CDC8C500C8C70B
:100CF000CCC5D0C5CDC8C5202020004E4F4E49558B
:100D00005320202020202000444556494154494F7B
:100D10004E20202000475241444520202020202002
:100D200020005343414E4E494E4720202020004D85
:100D30004541535552454D454E542000504F4C4966
:100D40004554494C454E3E32354D4D004E4153546D
:100D5000524F494B41203920202020004E4153540E
:100D6000524F494B41203820202020004E415354FF
:100D7000524F494B41203720202020004E415354F0
:100D8000524F494B41203620202020004E415354E1
:100D9000524F494B41203520202020004E415354D2
:100DA000524F494B41203420202020004E415354C3
:100DB000524F494B41203320202020004E415354B4
:100DC000524F494B41203220202020004E415354A5
:100DD000524F494B4120312020202000CFCECBC89C
:100DE000DDD2C8CBC5CD3E3235CCCC00CDC0D1D2C2
:100DF000D0CEC9CAC020392020202000CDC0D1D2F9
:100E0000D0CEC9CAC020382020202000CDC0D1D2E9
:100E1000D0CEC9CAC020372020202000CDC0D1D2DA
:100E2000D0CEC9CAC020362020202000CDC0D1D2CB
:100E3000D0CEC9CAC020352020202000CDC0D1D2BC
:100E4000D0CEC9CAC020342020202000CDC0D1D2AD
:100E5000D0CEC9CAC020332020202000CDC0D1D29E
:100E6000D0CEC9CAC020322020202000CDC0D1D28F
:100E7000D0CEC9CAC020312020202000504F4C596C
:100E8000455448594C454E453E323500534554541F
:100E9000494E472031202020202020005345545423
:100EA000494E472031202020202020005345545413
:100EB000494E472031202020202020005345545403
:100EC000494E4720312020202020200053455454F3
:100ED000494E4720312020202020200053455454E3
:100EE000494E4720312020202020200053455454D3
:100EF000494E4720312020202020200053455454C3
:100F0000494E4720312020202020200053455454B2
:100F1000494E472031202020202020002020205032
:100F20003131312D312E32352D50323020202000FC
:100F3000202020503131312D312E32352D4B3230A1
:100F4000202020002020503131322D312E32352DFD
:100F500032302F322D4120002020503131322D32BD
:100F60002E352D31322F322D4120200020503131AD
:100F7000322D352E30D22D31322F322D422020000D
:100F800020503131322D322E35D22D31322F322DAB
:100F900042202000503131322D322E352D31322F6A
:100FA000322D542D30303300503131322D352E302A
:100FB0002D31302F322D542D30303300503131321D
:100FC0002D31302E302D362F322D542D3030330030
:100FD000CF3131312D312E32352DCF3230202020FE
:100FE00020202000CF3131312D312E32352DCA3223
:100FF0003020202020202000CF3131322D312E32E0
:10100000352D32302F322DC020202000CF3131320B
:101010002D322E352D31322F322DC02020202000B0
:10102000CF3131322D352E30D22D31322F322DC1EC
:1010300020202000CF3131322D322E35D22D3132C9
:101040002F322DC120202000CF3131322D322E35CC
:101050002D31322F322DD22D30303300CF3131327D
:101060002D352E302D31302F322DD22D3030330012
:10107000CF3131322D31302E302D362F322DD22D31
:1010800030303300202020503131312D312E323597
:101090002D50323020202000202020503131312DA1
:1010A000312E32352D4B323020202000202050317F
:1010B00031322D312E32352D32302F322D4120005C
:1010C0002020503131322D322E352D31322F322D1C
:1010D0004120200020503131322D352E30D22D319B
:1010E000322F322D4220200020503131322D322E2D
:1010F00035D22D31322F322D422020005031313265
:101100002D322E352D31322F322D542D30303300EB
:10111000503131322D352E302D31302F322D542D8E
:1011200030303300503131322D31302E302D362FCA
:10113000322D542D3030330000000000000000003C
:10114000000000000000000000000000000000009F
:10115000000000000000000000000000000000008F
:10116000000000000000000000000000000000007F
:10117000000000000000000000000000000000006F
:1011800000000000000F0000000F0000000F000032
:10119000000F0000000F0000000F00000000000022
:1011A000000F000000000000000000000000000030
:1011B000000000000000000000000000000000002F
:1011C0000000000000F0F00000F0F00000F0F0007F
:1011D000000000000000000000000000000000000F
:1011E00000000000000000000000000000000000FF
:1011F00000000000000000000000000000000000EF
:1012000000000000000F0F0000F00F000FFFFFF0C4
:1012100000F0F00000F0F000FFFFFF000F00F00012
:101220000F0F0000000000000000000000000000A0
:1012300000000000000000000000000000000000AE
:10124000000F000000F0F00000F0F00000F0F000EF
:101250000F000F000F000F000F000F00F00000F054
:10126000FFFFFFF000000000000000000000000091
:10127000000000000000000000000000000000006E
:1012800000000000FFF00000F0F00000FFF00F0091
:10129000000FF00000F00000FF0FFF00000F0F0034
:1012A000000FFF0000000000000000000000000030
:1012B000000000000000000000000000000000002E
:1012C0000000000000FFF00000F0000000F000004F
:1012D00000FF00000F0FF0F00F00F0F00F000F0004
:1012E00000FFFFF000000000000000000000000010
:1012F00000000000000000000000000000000000EE
:1013000000000000000F0000000F0000000F0000B0
:1013100000000000000000000000000000000000CD
:1013200000000000000000000000000000000000BD
:1013300000000000000000000000000000000000AD
:101340000000000F000000F0000000F0000000F0BE
:10135000000000F0000000F0000000F0000000F0CD
:10136000000000F00000000F00000000000000007E
:10137000000000000000000000000000000000006D
:10138000F0000000F00000000F0000000F0000005F
:101390000F0000000F0000000F0000000F00000011
:1013A000F0000000F000000000000000000000005D
:1013B000000000000000000000000000000000002D
:1013C00000000000000F00000F0F0F0000FFF000F2
:1013D00000FFF0000F0F0F00000F000000000000E2
:1013E00000000000000000000000000000000000FD
:1013F00000000000000000000000000000000000ED
:10140000000000000000000000000000000F0000CD
:10141000000F00000FFFFF00000F0000000F000092
:1014200000000000000000000000000000000000BC
:1014300000000000000000000000000000000000AC
:10144000000000000000000000000000000000009C
:10145000000000000000000000000000000F00007D
:10146000000F000000F0000000000000000000007D
:10147000000000000000000000000000000000006C
:10148000000000000000000000000000000000005C
:101490000000000000FFF00000000000000000005D
:1014A000000000000000000000000000000000003C
:1014B000000000000000000000000000000000002C
:1014C000000000000000000000000000000000001C
:1014D000000000000000000000000000000F0000FD
:1014E000000F0000000000000000000000000000ED
:1014F00000000000000000000000000000000000EC
:101500000000000000000F000000F0000000F000EC
:10151000000F0000000F0000000F000000F00000AE
:1015200000F000000F0000000000000000000000BC
:1015300000000000000000000000000000000000AB
:101540000000000000FFFF000FF00FF00F0000F0A0
:101550000F0000F00F0000F00F0000F00FF00FF090
:1015600000FFFF000000000000000000000000007D
:10157000000000000000000000000000000000006B
:10158000000000000FFF0000000F0000000F00002F
:10159000000F0000000F0000000F0000000F00000F
:1015A0000FFFFF000000000000000000000000002E
:1015B000000000000000000000000000000000002B
:1015C0000000000000FFFF000F0000F0000000F02E
:1015D00000000FF00000FF00000FF00000F000001E
:1015E0000FFFFFF0000000000000000000000000FE
:1015F00000000000000000000000000000000000EB
:101600000000000000FFFF000F0000F0000000F0ED
:1016100000FFFF0000000FF0000000F00F0000F0DE
:1016200000FFFF00000000000000000000000000BC
:1016300000000000000000000000000000000000AA
:10164000000000000000FF000000FF00000F0F007E
:1016500000F00F000FF00F000FFFFFF000000F0071
:1016600000000F000000000000000000000000006B
:10167000000000000000000000000000000000006A
:10168000000000000FFFFF000F0000000F0000002F
:101690000FFFFF0000000FF0000000F0000000F05E
:1016A0000FFFFF000000000000000000000000002D
:1016B000000000000000000000000000000000002A
:1016C00000000000000FFFF000F000000F0000001D
:1016D0000F0FFF000FF000F00F0000F00F0000F000
:1016E00000FFFF00000000000000000000000000FC
:1016F00000000000000000000000000000000000EA
:10170000000000000FFFFFF000000F0000000F00BE
:101710000000F0000000F000000F0000000F0000CB
:1017200000F00000000000000000000000000000C9
:1017300000000000000000000000000000000000A9
:101740000000000000FFFF000F0000F00F0000F09D
:1017500000FFFF000F0000F00F0000F00F0000F08E
:1017600000FFFF000000000000000000000000007B
:101770000000000000000000000000000000000069
:101780000000000000FFFF000F0000F00F0000F05D
:101790000F0000F000FFFFF0000000F000000F005D
:1017A0000FFFF0000000000000000000000000003B
:1017B0000000000000000000000000000000000029
:1017C000000000000000000000000000000F00000A
:1017D000000F00000000000000000000000F0000EB
:1017E000000F0000000000000000000000000000EA
:1017F00000000000000000000000000000000000E9
:10180000000000000000000000000000000F0000C9
:10181000000F00000000000000000000000F0000AA
:10182000000F000000F000000000000000000000B9
:1018300000000000000000000000000000000000A8
:10184000000000000000000000000000000000F0A8
:10185000000FFF000FF00000000FF00000000FF07D
:101860000000000000000000000000000000000078
:101870000000000000000000000000000000000068
:101880000000000000000000000000000000000058
:10189000FFFFFF0000000000FFFFFF00000000004E
:1018A0000000000000000000000000000000000038
:1018B0000000000000000000000000000000000028
:1018C0000000000000000000000000000F00000009
:1018D00000FFF00000000FF0000FF0000FF000001C
:1018E00000000000000000000000000000000000F8
:1018F00000000000000000000000000000000000E8
:101900000000000000FFFF0000000F000000FF00CB
:10191000000FF000000F0000000F000000000000AA
:10192000000F0000000000000000000000000000A8
:1019300000000000000000000000000000000000A7
:1019400000000000000FFF0000F00FF00F0000F09B
:101950000F00FFF00F0F00F00F0F00F00F00FFF06F
:101960000FF0000000F00000000FFF00000000007A
:101970000000000000000000000000000000000067
:1019800000000000000FF000000FF000000FF0005A
:1019900000F00F0000F00F0000FFFF000F0000F04C
:1019A0000F0000F000000000000000000000000038
:1019B0000000000000000000000000000000000027
:1019C000000000000FFFFF000F0000F00F0000F00C
:1019D0000FFFFF000F0000F00F0000F00F0000F0FD
:1019E0000FFFFF00000000000000000000000000EA
:1019F00000000000000000000000000000000000E7
:101A000000000000000FFF0000F000F00F000000D9
:101A10000F0000000F0000000F00000000F000F0B9
:101A2000000FFF00000000000000000000000000A8
:101A300000000000000000000000000000000000A6
:101A4000000000000FFFF0000F000F000F0000F07B
:101A50000F0000F00F0000F00F0000F00F000F006B
:101A60000FFFF00000000000000000000000000078
:101A70000000000000000000000000000000000066
:101A8000000000000FFFFFF00F0000000F0000003B
:101A90000FFFFFF00F0000000F0000000F0000001C
:101AA0000FFFFFF000000000000000000000000039
:101AB0000000000000000000000000000000000026
:101AC000000000000FFFFFF00F0000000F000000FB
:101AD0000FFFFFF00F0000000F0000000F000000DC
:101AE0000F000000000000000000000000000000E7
:101AF00000000000000000000000000000000000E6
:101B000000000000000FFF0000F000F00F000000D8
:101B10000F0000000F000FF00F0000F000F000F0C9
:101B2000000FFF00000000000000000000000000A7
:101B300000000000000000000000000000000000A5
:101B4000000000000F0000F00F0000F00F0000F098
:101B50000FFFFFF00F0000F00F0000F00F0000F08B
:101B60000F0000F000000000000000000000000076
:101B70000000000000000000000000000000000065
:101B8000000000000FFFFF00000F0000000F00002A
:101B9000000F0000000F0000000F0000000F000009
:101BA0000FFFFF0000000000000000000000000028
:101BB0000000000000000000000000000000000025
:101BC00000000000000FFF0000000F0000000F00E9
:101BD00000000F0000000F0000000F000F000F00BA
:101BE00000FFF00000000000000000000000000006
:101BF00000000000000000000000000000000000E5
:101C0000000000000F000F000F00F0000F0F000099
:101C10000FF000000F0F00000F00F0000F000F008A
:101C20000F0000F0000000000000000000000000B5
:101C300000000000000000000000000000000000A4
:101C4000000000000F0000000F0000000F00000067
:101C50000F0000000F0000000F0000000F00000048
:101C60000FFFFFF000000000000000000000000077
:101C70000000000000000000000000000000000064
:101C8000000000000F0000F00FF00FF00FF00FF059
:101C90000F0FF0F00F0FF0F00F0000F00F0000F04A
:101CA0000F0000F000000000000000000000000035
:101CB0000000000000000000000000000000000024
:101CC000000000000F0000F00FF000F00F0F00F018
:101CD0000F0F00F00F00F0F00F00F0F00F000FF00A
:101CE0000F0000F0000000000000000000000000F5
:101CF00000000000000000000000000000000000E4
:101D00000000000000FFFF000FF00FF00F0000F0D8
:101D10000F0000F00F0000F00F0000F00FF00FF0C8
:101D200000FFFF00000000000000000000000000B5
:101D300000000000000000000000000000000000A3
:101D4000000000000FFFFF000F0000F00F0000F088
:101D50000F0000F00FFFFF000F0000000F00000059
:101D60000F00000000000000000000000000000064
:101D70000000000000000000000000000000000063
:101D80000000000000FFFF000FF00FF00F0000F058
:101D90000F0000F00F0000F00F0000F00FF00FF048
:101DA00000FFFF0000000FF0000000000000000036
:101DB0000000000000000000000000000000000023
:101DC000000000000FFFFF000F0000F00F0000F008
:101DD0000F0000F00FFFFF000F000F000F0000F0DA
:101DE0000F000000000000000000000000000000E4
:101DF00000000000000000000000000000000000E3
:101E00000000000000FFFF000F0000F00F000000C6
:101E10000FFFF00000000FF0000000F00F0000F0D6
:101E200000FFFF00000000000000000000000000B4
:101E300000000000000000000000000000000000A2
:101E400000000000FFFFFFF0000F0000000F000087
:101E5000000F0000000F0000000F0000000F000046
:101E6000000F000000000000000000000000000063
:101E70000000000000000000000000000000000062
:101E8000000000000F0000F00F0000F00F0000F055
:101E90000F0000F00F0000F00F0000F00F0000F046
:101EA00000FFFF0000000000000000000000000034
:101EB0000000000000000000000000000000000022
:101EC000000000000F0000F00F0000F000F00F0015
:101ED00000F00F0000F00F00000FF000000FF00006
:101EE000000FF000000000000000000000000000F3
:101EF00000000000000000000000000000000000E2
:101F000000000000F00000F0F00F00F0F00F00F013
:101F1000F0F0F0F00FF0FF000FF0FF000F000F00E7
:101F20000F000F0000000000000000000000000093
:101F300000000000000000000000000000000000A1
:101F4000000000000F0000F000F00F0000F00F0094
:101F5000000FF000000FF00000F00F0000F00F0085
:101F60000F0000F000000000000000000000000072
:101F70000000000000000000000000000000000061
:101F800000000000FF000FF00F000F0000F0F00055
:101F900000FFF000000F0000000F0000000F000025
:101FA000000F000000000000000000000000000022
:101FB0000000000000000000000000000000000021
:101FC000000000000FFFFFF000000F0000000F00F6
:101FD0000000F000000F000000FF000000F0000013
:101FE0000FFFFFF0000000000000000000000000F4
:101FF00000000000000000000000000000000000E1
:10200000000000FF000000F0000000F0000000F001
:10201000000000F0000000F0000000F0000000F000
:10202000000000F0000000FF0000000000000000C1
:1020300000000000000000000000000000000000A0
:10204000000000000F00000000F0000000F00000A1
:10205000000F0000000F0000000F00000000F00063
:102060000000F00000000F00000000000000000071
:102070000000000000000000000000000000000060
:10208000FF0000000F0000000F0000000F00000024
:102090000F0000000F0000000F0000000F00000004
:1020A0000F000000FF000000000000000000000022
:1020B0000000000000000000000000000000000020
:1020C0000000000000FF00000F00F000F0000F0013
:1020D0000000000000000000000000000000000000
:1020E00000000000000000000000000000000000F0
:1020F00000000000000000000000000000000000E0
:1021000000000000000000000000000000000000CF
:1021100000000000000000000000000000000000BF
:10212000000000000000000000000000FFFFFFF0C2
:10213000000000000000000000000000000000009F
:10214000000F00000000F000000000000000000090
:10215000000000000000000000000000000000007F
:10216000000000000000000000000000000000006F
:10217000000000000000000000000000000000005F
:102180000000000000000000000000000FFFF00051
:1021900000000F0000FFFF000F000F000F000F00F6
:1021A00000FFFF0000000000000000000000000031
:1021B000000000000000000000000000000000001F
:1021C0000F0000000F0000000F0000000FFFF000E4
:1021D0000F000F000F000F000F000F000F000F0087
:1021E0000FFFF000000000000000000000000000F1
:1021F00000000000000000000000000000000000DF
:1022000000000000000000000000000000FFFF00D0
:102210000FF000000F0000000F0000000FF00000A2
:1022200000FFFF00000000000000000000000000B0
:10223000000000000000000000000000000000009E
:1022400000000F0000000F0000000F0000FFFF0063
:102250000F000F000F000F000F000F000F000F0006
:1022600000FFFF0000000000000000000000000070
:10227000000000000000000000000000000000005E
:1022800000000000000000000000000000FFF0005F
:102290000F000F000FFFFF000F0000000F000000F5
:1022A00000FFFF0000000000000000000000000030
:1022B000000000000000000000000000000000001E
:1022C0000000FF00000F0000000F00000FFFFF00E4
:1022D000000F0000000F0000000F0000000F0000C2
:1022E000000F0000000000000000000000000000DF
:1022F00000000000000000000000000000000000DE
:1023000000000000000000000000000000FFFF00CF
:102310000F000F000F000F000F000F000F000F0045
:1023200000FFFF0000000F0000FFF00000000000B1
:10233000000000000000000000000000000000009D
:102340000F0000000F0000000F0000000F0FF00052
:102350000FF00F000F000F000F000F000F000F0015
:102360000F000F000000000000000000000000004F
:10237000000000000000000000000000000000005D
:10238000000F000000000000000000000FFF000030
:10239000000F0000000F0000000F0000000F000001
:1023A0000FFFFF0000000000000000000000000020
:1023B000000000000000000000000000000000001D
:1023C000000F000000000000000000000FFF0000F0
:1023D000000F0000000F0000000F0000000F0000C1
:1023E000000F0000000F00000FF0000000000000D0
:1023F00000000000000000000000000000000000DD
:102400000F0000000F0000000F0000000F00F000A0
:102410000F0F00000FF000000F0F00000F00F00082
:102420000F000F000000000000000000000000008E
:10243000000000000000000000000000000000009C
:10244000FFF0000000F0000000F0000000F00000CD
:1024500000F0000000F0000000F0000000F00000BC
:10246000000FF0000000000000000000000000006D
:10247000000000000000000000000000000000005C
:102480000000000000000000000000000FFFFF003F
:102490000F0F0F000F0F0F000F0F0F000F0F0F0088
:1024A0000F0F0F00000000000000000000000000FF
:1024B000000000000000000000000000000000001C
:1024C0000000000000000000000000000F0FF000FE
:1024D0000FF00F000F000F000F000F000F000F0094
:1024E0000F000F00000000000000000000000000CE
:1024F00000000000000000000000000000000000DC
:1025000000000000000000000000000000FFF000DC
:102510000F000F000F000F000F000F000F000F0043
:1025200000FFF000000000000000000000000000BC
:10253000000000000000000000000000000000009B
:102540000000000000000000000000000FFFF0008D
:102550000F000F000F000F000F000F000F000F0003
:102560000FFFF0000F0000000F000000000000004F
:10257000000000000000000000000000000000005B
:1025800000000000000000000000000000FFFF004D
:102590000F000F000F000F000F000F000F000F00C3
:1025A00000FFFF0000000F0000000F00000000000F
:1025B000000000000000000000000000000000001B
:1025C00000000000000000000000000000FFFF000D
:1025D00000F00F0000F0000000F0000000F000002C
:1025E00000F00000000000000000000000000000FB
:1025F00000000000000000000000000000000000DB
:1026000000000000000000000000000000FFFF00CC
:102610000F0000000FFF00000000FF0000000F008F
:102620000FFFF000000000000000000000000000AC
:10263000000000000000000000000000000000009A
:102640000000000000F0000000F00000FFFFF000BC
:1026500000F0000000F0000000F0000000F00000BA
:1026600000FFF0000000000000000000000000007B
:10267000000000000000000000000000000000005A
:102680000000000000000000000000000F000F002C
:102690000F000F000F000F000F000F000F000F00C2
:1026A00000FFFF000000000000000000000000002C
:1026B000000000000000000000000000000000001A
:1026C0000000000000000000000000000F000F00EC
:1026D0000F000F0000F0F00000F0F00000F0F0003C
:1026E000000F0000000000000000000000000000DB
:1026F00000000000000000000000000000000000DA
:10270000000000000000000000000000F00000F0E9
:10271000F00000F00F0F0F000F0F0F0000F0F0009F
:1027200000F0F000000000000000000000000000C9
:102730000000000000000000000000000000000099
:102740000000000000000000000000000FF0FF008B
:1027500000F0F000000F0000000F000000F0F0009B
:102760000FF0FF000000000000000000000000006B
:102770000000000000000000000000000000000059
:102780000000000000000000000000000F000F002B
:102790000F00F00000F0F00000F0F00000FF00007B
:1027A000000F000000F000000FF00000000000002B
:1027B0000000000000000000000000000000000019
:1027C0000000000000000000000000000FFFFF00FC
:1027D0000000F000000FF00000FF000000F000001B
:1027E0000FFFFF00000000000000000000000000DC
:1027F00000000000000000000000000000000000D9
:10280000000FFF00000F0000000F0000000F00008D
:102810000FF00000000F0000000F0000000F00008C
:10282000000F0000000FFF0000000000000000008B
:102830000000000000000000000000000000000098
:10284000000F0000000F0000000F0000000F00004C
:10285000000F0000000F0000000F0000000F00003C
:10286000000F0000000F0000000F0000000000003B
:102870000000000000000000000000000000000058
:102880000FFF0000000F0000000F0000000F00000D
:102890000000FF00000F0000000F0000000F00000C
:1028A000000F00000FFF000000000000000000000B
:1028B0000000000000000000000000000000000018
:1028C0000000000000000000000000000000000008
:1028D000000000000FFF00000000FFF000000000FB
:1028E00000000000000000000000000000000000E8
:1028F00000000000000000000000000000000000D8
:1029000000000000000000000000000000000000C7
:1029100000000000000000000000000000000000B7
:1029200000000000000000000000000000000000A7
:102930000000000000000000000000000000000097
:1029400000000000000FF000000FF000000FF0008A
:1029500000F00F0000F00F0000FFFF000F0000F07C
:102960000F0000F000000000000000000000000068
:102970000000000000000000000000000000000057
:10298000000000000FFFFFF00F0000000F0000002C
:102990000FFFFF000F0000F00F0000F00F0000F02D
:1029A0000FFFFF000000000000000000000000001A
:1029B0000000000000000000000000000000000017
:1029C000000000000FFFFF000F0000F00F0000F0FC
:1029D0000FFFFF000F0000F00F0000F00F0000F0ED
:1029E0000FFFFF00000000000000000000000000DA
:1029F00000000000000000000000000000000000D7
:102A0000000000000FFFFFF00F0000000F000000AB
:102A10000F0000000F0000000F0000000F0000007A
:102A20000F00000000000000000000000000000097
:102A30000000000000000000000000000000000096
:102A4000000000000FFFFF000F000F000F000F003D
:102A50000F000F000F000F000F000F000F000F00FE
:102A6000FFFFFFF0F00000F0F00000F000000000B9
:102A70000000000000000000000000000000000056
:102A8000000000000FFFFFF00F0000000F0000002B
:102A90000FFFFFF00F0000000F0000000F0000000C
:102AA0000FFFFFF000000000000000000000000029
:102AB0000000000000000000000000000000000016
:102AC000000000000F0F0F000F0F0F0000FFF000BD
:102AD00000FFF0000FFFFF000F0F0F000F0F0F00A0
:102AE000F00F00F0000000000000000000000000F7
:102AF00000000000000000000000000000000000D6
:102B00000000000000FFFF000F0000F0000000F0D8
:102B100000FFFF0000000FF0000000F00F0000F0C9
:102B200000FFFF00000000000000000000000000A7
:102B30000000000000000000000000000000000095
:102B4000000000000F000FF00F000FF00F00F0F07A
:102B50000F00F0F00F0F00F00F0F00F00FF000F07B
:102B60000FF000F000000000000000000000000076
:102B700000000000000000000000000000FFF00066
:102B8000000000000F000FF00F000FF00F00F0F03A
:102B90000F00F0F00F0F00F00F0F00F00FF000F03B
:102BA0000FF000F000000000000000000000000036
:102BB0000000000000000000000000000000000015
:102BC000000000000F000F000F00F0000F0F0000CA
:102BD0000FF000000F0F00000F00F0000F000F00BB
:102BE0000F0000F0000000000000000000000000E6
:102BF00000000000000000000000000000000000D5
:102C0000000000000FFFF0000F00F0000F00F000C8
:102C10000F00F0000F00F0000F00F0000F00F000B8
:102C2000F000F000000000000000000000000000C4
:102C30000000000000000000000000000000000094
:102C4000000000000F0000F00FF00FF00FF00FF089
:102C50000F0FF0F00F0FF0F00F0000F00F0000F07A
:102C60000F0000F000000000000000000000000065
:102C70000000000000000000000000000000000054
:102C8000000000000F0000F00F0000F00F0000F047
:102C90000FFFFFF00F0000F00F0000F00F0000F03A
:102CA0000F0000F000000000000000000000000025
:102CB0000000000000000000000000000000000014
:102CC0000000000000FFFF000FF00FF00F0000F009
:102CD0000F0000F00F0000F00F0000F00FF00FF0F9
:102CE00000FFFF00000000000000000000000000E6
:102CF00000000000000000000000000000000000D4
:102D0000000000000FFFFFF00F0000F00F0000F0C8
:102D10000F0000F00F0000F00F0000F00F0000F0B7
:102D20000F0000F0000000000000000000000000A4
:102D30000000000000000000000000000000000093
:102D4000000000000FFFFF000F0000F00F0000F078
:102D50000F0000F00FFFFF000F0000000F00000049
:102D60000F00000000000000000000000000000054
:102D70000000000000000000000000000000000053
:102D800000000000000FFF0000F000F00F00000046
:102D90000F0000000F0000000F00000000F000F026
:102DA000000FFF0000000000000000000000000015
:102DB0000000000000000000000000000000000013
:102DC00000000000FFFFFFF0000F0000000F0000F8
:102DD000000F0000000F0000000F0000000F0000B7
:102DE000000F0000000000000000000000000000D4
:102DF00000000000000000000000000000000000D3
:102E0000000000000F0000F00FF00F0000F00F00B6
:102E100000F0F00000FFF000000FF00000FF0000E5
:102E20000FF00000000000000000000000000000A3
:102E30000000000000000000000000000000000092
:102E400000000000000F000000FFF0000F0F0F0057
:102E50000F0F0F000F0F0F000F0F0F0000FFF000FC
:102E6000000F000000000000000000000000000053
:102E70000000000000000000000000000000000052
:102E8000000000000F0000F000F00F0000F00F0045
:102E9000000FF000000FF00000F00F0000F00F0036
:102EA0000F0000F000000000000000000000000023
:102EB0000000000000000000000000000000000012
:102EC00000000000F000F000F000F000F000F00062
:102ED000F000F000F000F000F000F000F000F00072
:102EE000FFFFFF0000000F0000000F0000000000C7
:102EF00000000000000000000000000000000000D2
:102F0000000000000F000F000F000F000F000F0067
:102F10000F000F000FFFFF0000000F0000000F0068
:102F200000000F0000000000000000000000000092
:102F30000000000000000000000000000000000091
:102F4000000000000F0F0F000F0F0F000F0F0F00FA
:102F50000F0F0F000F0F0F000F0F0F000F0F0F00BD
:102F60000FFFFF0000000000000000000000000054
:102F70000000000000000000000000000000000051
:102F800000000000F0F0F000F0F0F000F0F0F000D1
:102F9000F0F0F000F0F0F000F0F0F000F0F0F000F1
:102FA000FFFFFF0000000F0000000F000000000006
:102FB0000000000000000000000000000000000011
:102FC00000000000FF0000000F0000000FFFF000F5
:102FD0000F00FF000F000F000F000F000F00FF0099
:102FE0000FFFF000000000000000000000000000E3
:102FF00000000000000000000000000000000000D1
:1030000000000000F0000F00F0000F00FFF00F00C4
:10301000F00F0F00F00F0F00F00F0F00F00F0F0078
:10302000FFF00F00000000000000000000000000A2
:103030000000000000000000000000000000000090
:10304000000000000F0000000F0000000F00000053
:103050000FFFFF000F0000F00F0000F00F0000F066
:103060000FFFFF0000000000000000000000000053
:103070000000000000000000000000000000000050
:103080000000000000FFF0000F000F00000000F043
:1030900000FFFFF0000000F0000000F00F000F0044
:1030A00000FFF00000000000000000000000000031
:1030B0000000000000000000000000000000000010
:1030C000000000000F00FF000F0F00F00F0F00F0D6
:1030D0000FFF00F00F0F00F00F0F00F00F0F00F0C8
:1030E0000F00FF00000000000000000000000000D2
:1030F00000000000000000000000000000000000D0
:10310000000000000FFFFF00F0000F00F0000F00B4
:10311000F0000F000FFFFF000F000F000F000F0067
:10312000F0000F00000000000000000000000000A0
:10313000000000000000000000000000000000008F
:103140000000000000000000000000000FFFF00081
:1031500000000F0000FFFF000F000F000F000F0026
:1031600000FFFF0000000000000000000000000061
:10317000000000000000000000000000000000004F
:103180000000FF0000FF00000FF000000FFFF00044
:103190000F000F000F000F000F000F000F000F00B7
:1031A00000FFF00000000000000000000000000030
:1031B000000000000000000000000000000000000F
:1031C0000000000000000000000000000FFFF00001
:1031D0000F00F0000FFF00000F00F0000F00F000E4
:1031E0000FFF0000000000000000000000000000D1
:1031F00000000000000000000000000000000000CF
:103200000000000000000000000000000FFFF000C0
:103210000F0000000F0000000F0000000F00000072
:103220000F0000000000000000000000000000008F
:10323000000000000000000000000000000000008E
:1032400000000000000000000000000000FFFF0080
:1032500000F00F0000F00F0000F00F0000F00F0072
:103260000FFFFFF00F0000F00F0000F00000000063
:10327000000000000000000000000000000000004E
:1032800000000000000000000000000000FFF0004F
:103290000F000F000FFFFF000F0000000F000000E5
:1032A00000FFFF0000000000000000000000000020
:1032B000000000000000000000000000000000000E
:1032C0000000000000000000000000000F0F0F00D1
:1032D0000FFFFF0000FFF0000F0F0F000F0F0F0098
:1032E0000F0F0F00000000000000000000000000B1
:1032F00000000000000000000000000000000000CE
:1033000000000000000000000000000000FFFF00BF
:103310000F000F0000FFF00000000F000F000F0073
:1033200000FFF000000000000000000000000000AE
:10333000000000000000000000000000000000008D
:103340000000000000000000000000000F000F005F
:103350000F00FF000F0FFF000F0F0F000FF00F0007
:103360000F000F000000000000000000000000003F
:10337000000000000000000000000000000000004D
:1033800000F0F00000FFF000000000000F000F0050
:103390000F00FF000F0FFF000F0F0F000FF00F00C7
:1033A0000F000F00000000000000000000000000FF
:1033B000000000000000000000000000000000000D
:1033C0000000000000000000000000000F00F000FE
:1033D0000F0F00000FF000000F0F00000F00F000B3
:1033E0000F000F00000000000000000000000000BF
:1033F00000000000000000000000000000000000CD
:103400000000000000000000000000000FFFF000BE
:103410000F00F0000F00F0000F00F0000F00F000B0
:10342000F000F000000000000000000000000000BC
:10343000000000000000000000000000000000008C
:103440000000000000000000000000000F000F005E
:103450000FF0FF000FF0FF000FF0FF000F0F0F0045
:103460000F000F000000000000000000000000003E
:10347000000000000000000000000000000000004C
:103480000000000000000000000000000F000F001E
:103490000F000F000FFFFF000F000F000F000F00C5
:1034A0000F000F00000000000000000000000000FE
:1034B000000000000000000000000000000000000C
:1034C00000000000000000000000000000FFF0000D
:1034D0000F000F000F000F000F000F000F000F0074
:1034E00000FFF000000000000000000000000000ED
:1034F00000000000000000000000000000000000CC
:103500000000000000000000000000000FFFFF00AE
:103510000F000F000F000F000F000F000F000F0033
:103520000F000F000000000000000000000000007D
:10353000000000000000000000000000000000008B
:103540000000000000000000000000000FFFF0007D
:103550000F000F000F000F000F000F000F000F00F3
:103560000FFFF0000F0000000F000000000000003F
:10357000000000000000000000000000000000004B
:1035800000000000000000000000000000FFFF003D
:103590000FF000000F0000000F0000000FF000000F
:1035A00000FFFF000000000000000000000000001D
:1035B000000000000000000000000000000000000B
:1035C0000000000000000000000000000FFFFF00EE
:1035D000000F0000000F0000000F0000000F0000AF
:1035E000000F0000000000000000000000000000CC
:1035F00000000000000000000000000000000000CB
:103600000000000000000000000000000F000F009C
:103610000F00F00000F0F00000F0F00000FF0000EC
:10362000000F000000F000000FF00000000000009C
:10363000000000000000000000000000000000008A
:10364000000F0000000F0000000F000000FFF0005E
:103650000F0F0F000F0F0F000F0F0F000F0F0F00B6
:1036600000FFF000000F0000000F0000000000004D
:10367000000000000000000000000000000000004A
:103680000000000000000000000000000FF0FF003C
:1036900000F0F000000F0000000F000000F0F0004C
:1036A0000FF0FF000000000000000000000000001C
:1036B000000000000000000000000000000000000A
:1036C0000000000000000000000000000F000F00DC
:1036D0000F000F000F000F000F000F000F000F0072
:1036E0000FFFFFF0000000F0000000F000000000FD
:1036F00000000000000000000000000000000000CA
:103700000000000000000000000000000F000F009B
:103710000F000F000F000F0000FFFF0000000F0060
:1037200000000F000000000000000000000000008A
:103730000000000000000000000000000000000089
:103740000000000000000000000000000F0F0F004C
:103750000F0F0F000F0F0F000F0F0F000F0F0F00B5
:103760000FFFFF000000000000000000000000004C
:103770000000000000000000000000000000000049
:103780000000000000000000000000000F0F0F000C
:103790000F0F0F000F0F0F000F0F0F000F0F0F0075
:1037A0000FFFFF00000000F0000000F0000000002C
:1037B0000000000000000000000000000000000009
:1037C000000000000000000000000000FF000000FA
:1037D0000F0000000FFFF0000F000F000F000F00A0
:1037E0000FFFF000000000000000000000000000DB
:1037F00000000000000000000000000000000000C9
:103800000000000000000000000000000F000F009A
:103810000F000F000FFF0F000F0F0F000F0F0F0013
:103820000FFF0F000000000000000000000000007B
:103830000000000000000000000000000000000088
:103840000000000000000000000000000F00000069
:103850000F0000000FFFF0000F000F000F000F001F
:103860000FFFF0000000000000000000000000005A
:103870000000000000000000000000000000000048
:103880000000000000000000000000000FFFF0003A
:1038900000000F0000FFFF0000000F000000FF000D
:1038A0000FFFF0000000000000000000000000001A
:1038B0000000000000000000000000000000000008
:1038C0000000000000000000000000000F00FF00EA
:1038D0000F0F00F00F0F00F00FFF00F00F0F00F0C0
:1038E0000F00FF00000000000000000000000000CA
:1038F00000000000000000000000000000000000C8
:1039000000000000000000000000000000FFF000C8
:103910000F00F0000F00F00000FFF00000F0F000DA
:103920000F00F00000000000000000000000000098
:10393000000000000000000000F0F00000000000A7
:103940000FFFFFF00F0000000F0000000FFFFFF05F
:103950000F0000000F0000000F0000000FFFFFF03D
:103960000000000000000000000000000000000057
:103970000000000000000000000000000000000047
:1039800000F0F0000000000000FFF0000F000F004A
:103990000FFFFF000F0000000F00000000FFFF00FE
:1039A0000000000000000000000000000000000017
:1039B0000000000000000000000000000000000007
:1039C0000000000000FFFF000FF00FF00F0000F0FC
:1039D0000F0000F00F0000F00F0000F00FF00FF0EC
:1039E00000FFFF000000000F0000000F00000000BB
:1039F00000000000000000000000000000000000C7
:103A0000000000000FFF0000000F0000000F00008A
:103A1000000F0000000F0000000F0000000F00006A
:103A20000FFFFF000000000F0000000F000000006B
:103A30000000000000000000000000000000000086
:103A40000000000000FFFF000F0000F0000000F089
:103A500000000FF00000FF00000FF00000F0000079
:103A60000FFFFFF00000000F0000000F000000003B
:103A70000000000000000000000000000000000046
:103A80000000000000FFFF000F0000F0000000F049
:103A900000FFFF0000000FF0000000F00F0000F03A
:103AA00000FFFF000000000F0000000F00000000FA
:103AB0000000000000000000000000000000000006
:103AC000000000000000FF000000FF00000F0F00DA
:103AD00000F00F000FF00F000FFFFFF000000F00CD
:103AE00000000F000000000F0000000F00000000A9
:103AF00000000000000000000000000000000000C6
:103B0000000000000FFFFF000F0000000F0000008A
:103B10000FFFFF0000000FF0000000F0000000F0B9
:103B20000FFFFF000000000F0000000F000000006A
:103B30000000000000000000000000000000000085
:103B400000000000000FFFF000F000000F00000078
:103B50000F0FFF000FF000F00F0000F00F0000F05B
:103B600000FFFF000000000F0000000F0000000039
:103B70000000000000000000000000000000000045
:103B8000000000000FFFFFF000000F0000000F001A
:103B90000000F0000000F000000F0000000F000027
:103BA00000F000000000000F0000000F0000000007
:103BB0000000000000000000000000000000000005
:103BC0000000000000FFFF000F0000F00F0000F0F9
:103BD00000FFFF000F0000F00F0000F00F0000F0EA
:103BE00000FFFF000000000F0000000F00000000B9
:103BF00000000000000000000000000000000000C5
:103C00000000000000FFFF000F0000F00F0000F0B8
:103C10000F0000F000FFFFF0000000F000000F00B8
:103C20000FFFF0000000000F0000000F0000000078
:103C30000000000000000000000000000000000084
:103C40000000000000FFFF000F0000F0F00FF00F79
:103C5000F0F0000FF0F0000FF00FF00F0F0000F089
:103C600000FFFF0000000000000000000000000056
:103C70000000000000000000000000000000000044
:103C80000000000000000000000000000000000034
:103C90000000000000000000000000000000000024
:103CA0000000000000000000000000000000000014
:103CB0000000000000000FFF0000000000000FFFE8
:103CC0000000000000000FFF000000000000FFFFE8
:103CD000F00000000000FF0FF00000000000FF0FE8
:103CE000F00000000000FF0FF0000000000FF000E7
:103CF000FF000000000FF000FF000000000FF000C8
:103D0000FF000000000FF000FF00000000FFFFFFB9
:103D1000FFF0000000FFFFFFFFF0000000FF0000C9
:103D20000FF0000000FF00000FF000000FF0000097
:103D300000FF00000FF0000000FF00000000000086
:103D40000000000000000000000000000000000073
:103D50000000000000000000000000000000000063
:103D60000000000000000000000000000000000053
:103D70000000000000000000000000000000000043
:103D80000000000000000000000000000000000033
:103D90000000000000000000000000000000000023
:103DA0000000000000000000000000000000000013
:103DB000000000000FFFFFFFFFF000000FFFFFFFFC
:103DC000FFF000000FF00000000000000FF0000006
:103DD000000000000FF00000000000000FF00000E5
:103DE000000000000FF00000000000000FFFFFFFC8
:103DF000F00000000FFFFFFFFFF000000FF00000D9
:103E00000FF000000FF0000000FF00000FF00000B6
:103E100000FF00000FF0000000FF00000FF00000A6
:103E200000FF00000FF000000FFF00000FFFFFFF7A
:103E3000FFF000000FFFFFFFF00000000000000097
:103E40000000000000000000000000000000000072
:103E50000000000000000000000000000000000062
:103E60000000000000000000000000000000000052
:103E70000000000000000000000000000000000042
:103E80000000000000000000000000000000000032
:103E90000000000000000000000000000000000022
:103EA0000000000000000000000000000000000012
:103EB000000000000FFFFFFFF00000000FFFFFFFFA
:103EC000FF0000000FF00000FFF000000FF0000006
:103ED0000FF000000FF000000FF000000FF00000E6
:103EE0000FF000000FF00000FFF000000FFFFFFFD9
:103EF000FF0000000FFFFFFFFF0000000FF00000B9
:103F00000FF000000FF0000000FF00000FF00000B5
:103F100000FF00000FF0000000FF00000FF00000A5
:103F200000FF00000FF000000FFF00000FFFFFFF79
:103F3000FFF000000FFFFFFFF00000000000000096
:103F40000000000000000000000000000000000071
:103F50000000000000000000000000000000000061
:103F60000000000000000000000000000000000051
:103F70000000000000000000000000000000000041
:103F80000000000000000000000000000000000031
:103F90000000000000000000000000000000000021
:103FA0000000000000000000000000000000000011
:103FB000000000000FFFFFFFFFFF00000FFFFFFFEB
:103FC000FFFF00000FF00000000000000FF00000F5
:103FD000000000000FF00000000000000FF00000E3
:103FE000000000000FF00000000000000FF00000D3
:103FF000000000000FF00000000000000FF00000C3
:10400000000000000FF00000000000000FF00000B2
:10401000000000000FF00000000000000FF00000A2
:10402000000000000FF00000000000000FF0000092
:10403000000000000FF00000000000000000000081
:104040000000000000000000000000000000000070
:104050000000000000000000000000000000000060
:104060000000000000000000000000000000000050
:104070000000000000000000000000000000000040
:104080000000000000000000000000000000000030
:104090000000000000000000000000000000000020
:1040A0000000000000000000000000000000000010
:1040B0000000000000FFFFFFFFFF000000FFFFFF08
:1040C000FFFF000000FF000000FF000000FF0000F5
:1040D00000FF000000FF000000FF000000FF0000E4
:1040E00000FF000000FF000000FF000000FF0000D4
:1040F00000FF000000FF000000FF000000FF0000C4
:1041000000FF000000FF000000FF000000FF0000B3
:1041100000FF000000FF000000FF00000FF00000A3
:1041200000FF00000FF0000000FF0000FFFFFFFF96
:10413000FFFFF000FFFFFFFFFFFFF000FF000000A8
:10414000000FF000FF000000000FF000FF00000073
:10415000000FF000FF000000000FF0000000000062
:10416000000000000000000000000000000000004F
:10417000000000000000000000000000000000003F
:10418000000000000000000000000000000000002F
:10419000000000000000000000000000000000001F
:1041A000000000000000000000000000000000000F
:1041B000000000000FFFFFFFFFFF00000FFFFFFFE9
:1041C000FFFF00000FF00000000000000FF00000F3
:1041D000000000000FF00000000000000FF00000E1
:1041E000000000000FF00000000000000FFFFFFFC4
:1041F000FFF000000FFFFFFFFFF000000FF00000D6
:10420000000000000FF00000000000000FF00000B0
:10421000000000000FF00000000000000FF00000A0
:10422000000000000FF00000000000000FFFFFFF83
:10423000FFFF00000FFFFFFFFFFF00000000000076
:10424000000000000000000000000000000000006E
:10425000000000000000000000000000000000005E
:10426000000000000000000000000000000000004E
:10427000000000000000000000000000000000003E
:10428000000000000000000000000000000000002E
:10429000000000000000000000000000000000001E
:1042A000000000000000000000000000000000000E
:1042B000000000000FF000FF000FF0000FFF00FFF4
:1042C00000FFF00000FF00FF00FF000000FF00FF04
:1042D00000FF0000000FF0FF0FF00000000FF0FFE4
:1042E0000FF000000000FFFFFF000000000FFFFFC5
:1042F000FFF00000000FFFFFFFF00000000FFFFFC6
:10430000FFF0000000FFFFFFFFFF000000FF00FFC5
:1043100000FF000000FF00FF00FF00000FFF00FF94
:1043200000FFF0000FF000FF000FF0000FF000FFA3
:10433000000FF000FFF000FF000FFF000000000082
:10434000000000000000000000000000000000006D
:10435000000000000000000000000000000000005D
:10436000000000000000000000000000000000004D
:10437000000000000000000000000000000000003D
:10438000000000000000000000000000000000002D
:10439000000000000000000000000000000000001D
:1043A000000000000000000000000000000000000D
:1043B000000000000000FFFFF000000000FFFFFF12
:1043C000FFF0000000F000000FFF00000000000000
:1043D00000FF00000000000000FF000000000000DF
:1043E00000FF0000000000000FF000000000FFFFD1
:1043F000FF0000000000FFFFFF00000000000000C1
:10440000FFF000000000000000FF000000000000BE
:1044100000FF00000000000000FF0000000000009E
:1044200000FF00000F000000FFF000000FFFFFFF83
:10443000FFF0000000FFFFFFF000000000000000A0
:10444000000000000000000000000000000000006C
:10445000000000000000000000000000000000005C
:10446000000000000000000000000000000000004C
:10447000000000000000000000000000000000003C
:10448000000000000000000000000000000000002C
:10449000000000000000000000000000000000001C
:1044A000000000000000000000000000000000000C
:1044B000000000000FF000000FFF00000FF00000F0
:1044C0000FFF00000FF00000FFFF00000FF00000E2
:1044D000FFFF00000FF0000FF0FF00000FF0000FD3
:1044E000F0FF00000FF000FF00FF00000FF000FFE2
:1044F00000FF00000FF000F000FF00000FF00FF0D1
:1045000000FF00000FF00FF000FF00000FF0FF00B1
:1045100000FF00000FF0FF0000FF00000FFFF000A1
:1045200000FF00000FFFF00000FF00000FFF000081
:1045300000FF00000FFF000000FF0000000000006F
:10454000000000000000000000000000000000006B
:10455000000000000000000000000000000000005B
:10456000000000000000000000000000000000004B
:10457000000000000000000000000000000000003B
:10458000000000000000000000000000000000002B
:1045900000000000000FFFFFFF0000000000FFFF11
:1045A000F00000000000000000000000000000001B
:1045B000000000000FF000000FFF00000FF00000EF
:1045C0000FFF00000FF00000FFFF00000FF00000E1
:1045D000FFFF00000FF0000FF0FF00000FF0000FD2
:1045E000F0FF00000FF000FF00FF00000FF000FFE1
:1045F00000FF00000FF000F000FF00000FF00FF0D0
:1046000000FF00000FF00FF000FF00000FF0FF00B0
:1046100000FF00000FF0FF0000FF00000FFFF000A0
:1046200000FF00000FFFF00000FF00000FFF000080
:1046300000FF00000FFF000000FF0000000000006E
:10464000000000000000000000000000000000006A
:10465000000000000000000000000000000000005A
:10466000000000000000000000000000000000004A
:10467000000000000000000000000000000000003A
:10468000000000000000000000000000000000002A
:10469000000000000000000000000000000000001A
:1046A000000000000000000000000000000000000A
:1046B000000000000FF0000000FF00000FF00000FD
:1046C0000FF000000FF00000FF0000000FF0000FDF
:1046D000F00000000FF000FFF00000000FF00FFFEF
:1046E000000000000FF0FFF0000000000FFFFFF0DF
:1046F000000000000FFFFFF0000000000FFF00FFB0
:10470000000000000FF000FFF00000000FF0000FAD
:10471000F00000000FF00000FF0000000FF00000AC
:10472000FFF000000FF000000FF000000FF000009D
:1047300000FF00000FF0000000FFF000000000008C
:104740000000000000000000000000000000000069
:104750000000000000000000000000000000000059
:104760000000000000000000000000000000000049
:104770000000000000000000000000000000000039
:104780000000000000000000000000000000000029
:104790000000000000000000000000000000000019
:1047A0000000000000000000000000000000000009
:1047B00000000000000FFFFFFFFF0000000FFFFFE1
:1047C000FFFF0000000FF00000FF0000000FF000EE
:1047D00000FF0000000FF00000FF0000000FF000DD
:1047E00000FF0000000FF00000FF0000000FF000CD
:1047F00000FF0000000FF00000FF0000000FF000BD
:1048000000FF0000000FF00000FF0000000FF000AC
:1048100000FF0000000FF00000FF0000000FF0009C
:1048200000FF000000FF000000FF0000FFFF00008D
:1048300000FF0000FFF0000000FF0000000000008B
:104840000000000000000000000000000000000068
:104850000000000000000000000000000000000058
:104860000000000000000000000000000000000048
:104870000000000000000000000000000000000038
:104880000000000000000000000000000000000028
:104890000000000000000000000000000000000018
:1048A0000000000000000000000000000000000008
:1048B000000000000FFF00000FFF00000FFF0000CE
:1048C0000FFF00000FFFF000FFFF00000FFFF000E0
:1048D000FFFF00000FF0F000F0FF00000FF0FF0FEF
:1048E000F0FF00000FF0FF0FF0FF00000FF00F0FC0
:1048F00000FF00000FF00F0F00FF00000FF00FFF90
:1049000000FF00000FF000F000FF00000FF00000BB
:1049100000FF00000FF0000000FF00000FF000009B
:1049200000FF00000FF0000000FF00000FF000008B
:1049300000FF00000FF0000000FF0000000000007A
:104940000000000000000000000000000000000067
:104950000000000000000000000000000000000057
:104960000000000000000000000000000000000047
:104970000000000000000000000000000000000037
:104980000000000000000000000000000000000027
:104990000000000000000000000000000000000017
:1049A0000000000000000000000000000000000007
:1049B000000000000FF0000000FF00000FF00000FA
:1049C00000FF00000FF0000000FF00000FF00000EB
:1049D00000FF00000FF0000000FF00000FF00000DB
:1049E00000FF00000FF0000000FF00000FFFFFFFBE
:1049F000FFFF00000FFFFFFFFFFF00000FF00000B0
:104A000000FF00000FF0000000FF00000FF00000AA
:104A100000FF00000FF0000000FF00000FF000009A
:104A200000FF00000FF0000000FF00000FF000008A
:104A300000FF00000FF0000000FF00000000000079
:104A40000000000000000000000000000000000066
:104A50000000000000000000000000000000000056
:104A60000000000000000000000000000000000046
:104A70000000000000000000000000000000000036
:104A80000000000000000000000000000000000026
:104A90000000000000000000000000000000000016
:104AA0000000000000000000000000000000000006
:104AB000000000000000FFFFF0000000000FFFFFFB
:104AC000FF00000000FFF000FFF0000000FF00000A
:104AD0000FF000000FF0000000FF00000FF00000DA
:104AE00000FF00000FF0000000FF00000FF00000CA
:104AF00000FF00000FF0000000FF00000FF00000BA
:104B000000FF00000FF0000000FF00000FF00000A9
:104B100000FF00000FF0000000FF000000FF000099
:104B20000FF0000000FFF000FFF00000000FFFFF9B
:104B3000FF0000000000FFFFF00000000000000088
:104B40000000000000000000000000000000000065
:104B50000000000000000000000000000000000055
:104B60000000000000000000000000000000000045
:104B70000000000000000000000000000000000035
:104B80000000000000000000000000000000000025
:104B90000000000000000000000000000000000015
:104BA0000000000000000000000000000000000005
:104BB000000000000FFFFFFFFFFF00000FFFFFFFDF
:104BC000FFFF00000FF0000000FF00000FF00000EA
:104BD00000FF00000FF0000000FF00000FF00000D9
:104BE00000FF00000FF0000000FF00000FF00000C9
:104BF00000FF00000FF0000000FF00000FF00000B9
:104C000000FF00000FF0000000FF00000FF00000A8
:104C100000FF00000FF0000000FF00000FF0000098
:104C200000FF00000FF0000000FF00000FF0000088
:104C300000FF00000FF0000000FF00000000000077
:104C40000000000000000000000000000000000064
:104C50000000000000000000000000000000000054
:104C60000000000000000000000000000000000044
:104C70000000000000000000000000000000000034
:104C80000000000000000000000000000000000024
:104C90000000000000000000000000000000000014
:104CA0000000000000000000000000000000000004
:104CB000000000000FFFFFFFF00000000FFFFFFFEC
:104CC000FFF000000FF000000FF000000FF00000F8
:104CD00000FF00000FF0000000FF00000FF00000D8
:104CE00000FF00000FF0000000FF00000FF00000C8
:104CF000FFF000000FFFFFFFFFF000000FFFFFFFBE
:104D0000F00000000FF00000000000000FF00000B5
:104D1000000000000FF00000000000000FF0000095
:104D2000000000000FF00000000000000FF0000085
:104D3000000000000FF00000000000000000000074
:104D40000000000000000000000000000000000063
:104D50000000000000000000000000000000000053
:104D60000000000000000000000000000000000043
:104D70000000000000000000000000000000000033
:104D80000000000000000000000000000000000023
:104D90000000000000000000000000000000000013
:104DA0000000000000000000000000000000000003
:104DB0000000000000000FFFFFF000000000FFFFF8
:104DC000FFFF0000000FFF00000F000000FF0000C9
:104DD0000000000000FF0000000000000FF00000D5
:104DE000000000000FF00000000000000FF00000C5
:104DF000000000000FF00000000000000FF00000B5
:104E0000000000000FF00000000000000FF00000A4
:104E10000000000000FF00000000000000FF000094
:104E200000000000000FFF00000F00000000FFFF67
:104E3000FFFF000000000FFFFFF000000000000077
:104E40000000000000000000000000000000000062
:104E50000000000000000000000000000000000052
:104E60000000000000000000000000000000000042
:104E70000000000000000000000000000000000032
:104E80000000000000000000000000000000000022
:104E90000000000000000000000000000000000012
:104EA0000000000000000000000000000000000002
:104EB000000000000FFFFFFFFFFFF0000FFFFFFFEC
:104EC000FFFFF000000000FF00000000000000FFF6
:104ED00000000000000000FF00000000000000FFD4
:104EE00000000000000000FF00000000000000FFC4
:104EF00000000000000000FF00000000000000FFB4
:104F000000000000000000FF00000000000000FFA3
:104F100000000000000000FF00000000000000FF93
:104F200000000000000000FF00000000000000FF83
:104F300000000000000000FF000000000000000072
:104F40000000000000000000000000000000000061
:104F50000000000000000000000000000000000051
:104F60000000000000000000000000000000000041
:104F70000000000000000000000000000000000031
:104F80000000000000000000000000000000000021
:104F90000000000000000000000000000000000011
:104FA0000000000000000000000000000000000001
:104FB000000000000FF00000000FF00000FF0000F4
:104FC00000FF000000FF000000FF000000FFF000F5
:104FD00000FF0000000FF0000FF00000000FF000D5
:104FE0000FF000000000FF00FFF000000000FF00D5
:104FF000FF0000000000FFF0FF00000000000FFFB6
:10500000F000000000000FFFF0000000000000FFB3
:10501000F0000000000000FF0000000000000FFF93
:105020000000000000000FF00000000000FFFFF093
:105030000000000000FFFF00000000000000000072
:105040000000000000000000000000000000000060
:105050000000000000000000000000000000000050
:105060000000000000000000000000000000000040
:105070000000000000000000000000000000000030
:105080000000000000000000000000000000000020
:105090000000000000000000000000000000000010
:1050A0000000000000000000000000000000000000
:1050B00000000000000000FF000000000000FFFFF3
:1050C000FF00000000FFFFFFFFFF000000FF00FFE8
:1050D00000FF00000FF000FF000FF0000FF000FFD6
:1050E000000FF0000FF000FF000FF0000FF000FFC6
:1050F000000FF0000FF000FF000FF0000FF000FFB6
:10510000000FF0000FF000FF000FF0000FF000FFA5
:10511000000FF00000FF00FF00FF0000000FFFFF86
:10512000FFFF00000000FFFFFF000000000000FF85
:1051300000000000000000FF000000000000000070
:10514000000000000000000000000000000000005F
:10515000000000000000000000000000000000004F
:10516000000000000000000000000000000000003F
:10517000000000000000000000000000000000002F
:10518000000000000000000000000000000000001F
:10519000000000000000000000000000000000000F
:1051A00000000000000000000000000000000000FF
:1051B000000000000FFF00000FFF000000FF0000D4
:1051C0000FF0000000FFF000FFF00000000FF00003
:1051D000FF000000000FFF0FF00000000000FF0FB5
:1051E000F000000000000FFF0000000000000FFFB3
:1051F0000000000000000FFF0000000000000FFF93
:10520000000000000000FF0FF00000000000FF0F92
:10521000F0000000000FF000FF000000000FF000A1
:10522000FF00000000FF00000FF0000000FF000082
:105230000FF000000FF0000000FF00000000000071
:10524000000000000000000000000000000000005E
:10525000000000000000000000000000000000004E
:10526000000000000000000000000000000000003E
:10527000000000000000000000000000000000002E
:10528000000000000000000000000000000000001E
:10529000000000000000000000000000000000000E
:1052A00000000000000000000000000000000000FE
:1052B000000000000FF0000000FF00000FF00000F1
:1052C00000FF00000FF0000000FF00000FF00000E2
:1052D00000FF00000FF0000000FF00000FF00000D2
:1052E00000FF00000FF0000000FF00000FF00000C2
:1052F00000FF00000FF0000000FF00000FF00000B2
:1053000000FF00000FF0000000FF00000FF00000A1
:1053100000FF00000FF0000000FF00000FF0000091
:1053200000FF00000FF0000000FF00000FFFFFFF74
:10533000FFFFFF000FFFFFFFFFFFFF000000000067
:105340000000FF00000000000000FF00000000005F
:105350000000FF00000000000000FF00000000004F
:10536000000000000000000000000000000000003D
:10537000000000000000000000000000000000002D
:10538000000000000000000000000000000000001D
:10539000000000000000000000000000000000000D
:1053A00000000000000000000000000000000000FD
:1053B000000000000FF0000000FF00000FF00000F0
:1053C00000FF00000FF0000000FF00000FF00000E1
:1053D00000FF00000FF0000000FF00000FF00000D1
:1053E00000FF00000FF0000000FF00000FFF0000B2
:1053F0000FFF000000FFFFFFFFFF0000000FFFFF97
:10540000F0FF00000000000000FF000000000000AE
:1054100000FF00000000000000FF0000000000008E
:1054200000FF00000000000000FF0000000000007E
:1054300000FF00000000000000FF0000000000006E
:10544000000000000000000000000000000000005C
:10545000000000000000000000000000000000004C
:10546000000000000000000000000000000000003C
:10547000000000000000000000000000000000002C
:10548000000000000000000000000000000000001C
:10549000000000000000000000000000000000000C
:1054A00000000000000000000000000000000000FC
:1054B000000000000FF000FF000FF0000FF000FFF1
:1054C000000FF0000FF000FF000FF0000FF000FFE2
:1054D000000FF0000FF000FF000FF0000FF000FFD2
:1054E000000FF0000FF000FF000FF0000FF000FFC2
:1054F000000FF0000FF000FF000FF0000FF000FFB2
:10550000000FF0000FF000FF000FF0000FF000FFA1
:10551000000FF0000FF000FF000FF0000FF000FF91
:10552000000FF0000FF000FF000FF0000FFFFFFF73
:10553000FFFFF0000FFFFFFFFFFFF0000000000083
:10554000000000000000000000000000000000005B
:10555000000000000000000000000000000000004B
:10556000000000000000000000000000000000003B
:10557000000000000000000000000000000000002B
:10558000000000000000000000000000000000001B
:10559000000000000000000000000000000000000B
:1055A00000000000000000000000000000000000FB
:1055B000000000000FF000FF000FF0000FF000FFF0
:1055C000000FF0000FF000FF000FF0000FF000FFE1
:1055D000000FF0000FF000FF000FF0000FF000FFD1
:1055E000000FF0000FF000FF000FF0000FF000FFC1
:1055F000000FF0000FF000FF000FF0000FF000FFB1
:10560000000FF0000FF000FF000FF0000FF000FFA0
:10561000000FF0000FF000FF000FF0000FF000FF90
:10562000000FF0000FF000FF000FF0000FFFFFFF72
:10563000FFFFFF000FFFFFFFFFFFFF000000000064
:1056400000000F000000000000000F00000000003C
:1056500000000F000000000000000F00000000002C
:10566000000000000000000000000000000000003A
:10567000000000000000000000000000000000002A
:10568000000000000000000000000000000000001A
:10569000000000000000000000000000000000000A
:1056A00000000000000000000000000000000000FA
:1056B00000000000FFFFF00000000000FFFFF0000E
:1056C00000000000000FF00000000000000FF000DC
:1056D00000000000000FF00000000000000FF000CC
:1056E00000000000000FF00000000000000FFFFFAE
:1056F000FF000000000FFFFFFFFF0000000FF000A1
:105700000FFF0000000FF000000FF000000FF0008E
:10571000000FF000000FF000000FF000000FF0008D
:10572000000FF000000FF0000FFF0000000FFFFF60
:10573000FFFF0000000FFFFFFF000000000000005F
:105740000000000000000000000000000000000059
:105750000000000000000000000000000000000049
:105760000000000000000000000000000000000039
:105770000000000000000000000000000000000029
:105780000000000000000000000000000000000019
:105790000000000000000000000000000000000009
:1057A00000000000000000000000000000000000F9
:1057B000000000000FF0000000FF00000FF00000EC
:1057C00000FF00000FF0000000FF00000FF00000DD
:1057D00000FF00000FF0000000FF00000FF00000CD
:1057E00000FF00000FF0000000FF00000FFFFF00AF
:1057F00000FF00000FFFFFFF00FF00000FF000FFA1
:10580000F0FF00000FF0000FF0FF00000FF0000F9E
:10581000F0FF00000FF0000FF0FF00000FF0000F8E
:10582000F0FF00000FF000FFF0FF00000FFFFFFF90
:1058300000FF00000FFFFF0000FF0000000000005D
:105840000000000000000000000000000000000058
:105850000000000000000000000000000000000048
:105860000000000000000000000000000000000038
:105870000000000000000000000000000000000028
:105880000000000000000000000000000000000018
:105890000000000000000000000000000000000008
:1058A00000000000000000000000000000000000F8
:1058B000000000000FF00000000000000FF00000EA
:1058C000000000000FF00000000000000FF00000DA
:1058D000000000000FF00000000000000FF00000CA
:1058E000000000000FF00000000000000FFFFFFFAD
:1058F000F00000000FFFFFFFFFF000000FF00000BE
:105900000FF000000FF0000000FF00000FF000009B
:1059100000FF00000FF0000000FF00000FF000008B
:1059200000FF00000FF000000FF000000FFFFFFF6E
:10593000FFF000000FFFFFFFF0000000000000007C
:105940000000000000000000000000000000000057
:105950000000000000000000000000000000000047
:105960000000000000000000000000000000000037
:105970000000000000000000000000000000000027
:105980000000000000000000000000000000000017
:105990000000000000000000000000000000000007
:1059A00000000000000000000000000000000000F7
:1059B00000000000000FFFFFF000000000FFFFFFED
:1059C000FF00000000F000000FF0000000000000E9
:1059D00000FF00000000000000FF000000000000C9
:1059E000000FF00000000000000FF0000000FFFFBB
:1059F000FFFFF0000000FFFFFFFFF00000000000CD
:105A0000000FF00000000000000FF0000000000098
:105A1000000FF0000000000000FF00000000000088
:105A200000FF000000F00000FFF0000000FFFFFF9B
:105A3000FF000000000FFFFFF0000000000000006A
:105A40000000000000000000000000000000000056
:105A50000000000000000000000000000000000046
:105A60000000000000000000000000000000000036
:105A70000000000000000000000000000000000026
:105A80000000000000000000000000000000000016
:105A90000000000000000000000000000000000006
:105AA00000000000000000000000000000000000F6
:105AB000000000000FF0000FFFF000000FF000FFEB
:105AC000FFFF00000FF000FF00FF00000FF000F0EC
:105AD000000F00000FF00FF0000FF0000FF00FF0BC
